:100000000C9481000C94A9000C94A9000C94A900F4
:100010000C94A9000C94A9000C94A9000C94A900BC
:100020000C94A9000C94A9000C94A9000C94A900AC
:100030000C94A9000C94A9000C94A9000C94A9009C
:100040000C9409030C94A9000C94D7020C94B102EF
:100050000C94A9000C94A9000C94A9000C94A9007C
:100060000C94A9000C94A900400519054005400511
:100070004005400540054005400540054005400558
:100080004005400540054005400540054005400548
:100090004005400540054005400540054005400538
:1000A00040054005400500000000240027002A000C
:1000B00000000000250028002B00000000002300A5
:1000C00026002900040404040404040402020202B9
:1000D000020203030303030301020408102040800B
:1000E000010204081020010204081020000000088A
:1000F00000020100000304070000000000000000EF
:100100006F0511241FBECFEFD8E0DEBFCDBF11E0D9
:10011000A0E0B1E0E2E3F0E102C005900D92A0346E
:10012000B107D9F722E0A0E4B1E001C01D92A037E9
:10013000B207E1F710E0C1E8D0E004C02197FE016A
:100140000E949C05C038D107C9F70E9453030C9444
:1001500017080C940000CF92DF92EF92FF920F935A
:100160001F93CF93DF936C017A018B01C0E0D0E045
:10017000CE15DF0589F0D8016D918D01D601ED9185
:10018000FC910190F081E02DC6010995892B11F4B5
:100190007E0102C02196ECCFC701DF91CF911F9164
:1001A0000F91FF90EF90DF90CF900895FC01918D1B
:1001B000828D981761F0828DDF01A80FB11D5D96C9
:1001C0008C91928D9F5F9F73928F90E008958FEF37
:1001D0009FEF0895FC01918D828D981731F0828DEB
:1001E000E80FF11D858D90E008958FEF9FEF089542
:1001F000FC01918D228D892F90E0805C9F4F821BA6
:1002000091098F73992708958FEC91E00E94F8006F
:1002100021E0892B09F420E0822F0895FC01848DD0
:10022000DF01A80FB11DA35ABF4F2C91848D90E020
:1002300001968F739927848FA689B7892C93A089FB
:10024000B1898C9180648C93938D848D981306C0B2
:100250000288F389E02D80818F7D80830895EF925D
:10026000FF920F931F93CF93DF93EC0181E0888F70
:100270009B8D8C8D981305C0E889F989808185FD57
:1002800024C0F62E0B8D10E00F5F1F4F0F73112748
:10029000E02E8C8DE8120CC00FB607FCFACFE8896F
:1002A000F989808185FFF5CFCE010E940E01F1CF43
:1002B0008B8DFE01E80FF11DE35AFF4FF0820B8F8B
:1002C000EA89FB898081806207C0EE89FF896083AB
:1002D000E889F98980818064808381E090E0DF9102
:1002E000CF911F910F91FF90EF900895682F8FECA1
:1002F00091E00C942F01682F8FEC91E00C942F016A
:10030000CF93DF93EC01888D8823C9F0EA89FB89BC
:10031000808185FD05C0A889B9898C9186FD0FC0B3
:100320000FB607FCF5CF808185FFF2CFA889B98988
:100330008C9185FFEDCFCE010E940E01E7CFDF91BA
:10034000CF91089580E090E0892B29F00E9404016C
:1003500081110C9400000895833081F028F48130DD
:1003600099F08230A1F008958730A9F08830B9F073
:100370008430D1F4809180008F7D03C08091800013
:100380008F7780938000089584B58F7702C084B5FD
:100390008F7D84BD08958091B0008F7703C08091D8
:1003A000B0008F7D8093B00008951F93CF93DF93AB
:1003B000282F30E0F901E451FF4F8491F901E85210
:1003C000FF4FD491F901EC53FF4FC491CC23C9F0F6
:1003D000162F81110E94AC01EC2FF0E0EE0FFF1FF1
:1003E000E055FF4FA591B4918FB7F894111105C056
:1003F0009C91ED2FE095E92302C0EC91ED2BEC935D
:100400008FBFDF91CF911F910895CF93DF9390E03D
:10041000FC01E852FF4F2491FC01EC53FF4F849103
:10042000882361F190E0880F991FFC01EA55FF4F86
:10043000C591D491FC01E055FF4FA591B491611194
:1004400009C09FB7F8948881209582238883EC9116
:100450002E230BC0623061F49FB7F8943881822F4D
:10046000809583238883EC912E2B2C939FBF06C00D
:100470008FB7F894E8812E2B28838FBFDF91CF911F
:1004800008953FB7F8948091410190914201A09165
:100490004301B091440126B5A89B05C02F3F19F038
:1004A0000196A11DB11D3FBFBA2FA92F982F8827F4
:1004B000820F911DA11DB11DBC01CD0142E0660F4F
:1004C000771F881F991F4A95D1F708958F929F92A1
:1004D000AF92BF92CF92DF92EF92FF920E944102C1
:1004E0004B015C0182E3C82ED12CE12CF12C0E943F
:1004F0004102DC01CB0188199909AA09BB09883E90
:100500009340A105B10558F021E0C21AD108E108D5
:10051000F10888EE880E83E0981EA11CB11CC1145E
:10052000D104E104F10419F7FF90EF90DF90CF9030
:10053000BF90AF909F908F900895009769F0FC0155
:1005400001900020E9F73197AF01481B590BBC011E
:100550008FEC91E00C94AB0080E090E008950E9455
:1005600099071F920F920FB60F9211242F933F936A
:100570004F935F936F937F938F939F93AF93BF93AB
:10058000EF93FF938FEC91E00E940E01FF91EF91AA
:10059000BF91AF919F918F917F916F915F914F919B
:1005A0003F912F910F900FBE0F901F9018951F92A3
:1005B0000F920FB60F9211242F938F939F93EF9367
:1005C000FF93E091DF01F091E0018081E091E5018E
:1005D000F091E60182FD12C090818091E8018F5F69
:1005E0008F732091E901821751F0E091E801F0E06A
:1005F000E153FE4F958F8093E80101C08081FF9108
:10060000EF919F918F912F910F900FBE0F901F90A0
:1006100018951F920F920FB60F9211242F933F93AC
:100620008F939F93AF93BF93809145019091460123
:10063000A0914701B09148013091400123E0230F80
:100640002D3720F40196A11DB11D05C026E8230F0A
:100650000296A11DB11D2093400180934501909306
:100660004601A0934701B0934801809141019091C8
:100670004201A0914301B09144010196A11DB11D19
:100680008093410190934201A0934301B0934401B0
:10069000BF91AF919F918F913F912F910F900FBE7E
:1006A0000F901F901895CF93DF93CDB7DEB7A1972A
:1006B0000FB6F894DEBF0FBECDBF789484B58260CC
:1006C00084BD84B5816084BD85B5826085BD85B5F6
:1006D000816085BD80916E00816080936E00109274
:1006E00081008091810082608093810080918100EF
:1006F0008160809381008091800081608093800080
:100700008091B10084608093B1008091B0008160DD
:100710008093B00080917A00846080937A00809109
:100720007A00826080937A0080917A008160809361
:100730007A0080917A00806880937A001092C100DC
:10074000E091DF01F091E00182E08083E091DB0144
:10075000F091DC011082E091DD01F091DE0180E199
:1007600080831092E701E091E301F091E40186E0DB
:100770008083E091E101F091E201808180618083DA
:10078000E091E101F091E201808188608083E09155
:10079000E101F091E201808180688083E091E101D4
:1007A000F091E20180818F7D808382E291E00E945E
:1007B0009D0287E391E00E949D028DE391E00E94FB
:1007C0009D0280EE90E00E947B018FEC91E00E9400
:1007D0008001CE0101967C018FEC91E00E94F8002F
:1007E000892B09F46DC18FEC91E00E94D600182F7F
:1007F000082E000C990B9093CE018093CD0187FFBA
:1008000052C19C01207F33273093CC012093CB0130
:100810002039310511F51F70212F30E0F901E45125
:10082000FF4F8491F901E852FF4FD490F901EC5346
:10083000FF4F0491002309F446C181110E94AC01CD
:10084000E02FF0E0EE0FFF1FE654FF4FA591B491AB
:10085000EC91ED2109F437C13BC1203A310511F487
:1008600060E004C0203B310541F461E0812F8F70CE
:100870000E94D5010E94660223C1203C310509F087
:10088000A5C0012F077013FF72C0002E000C110BC2
:100890008FEC91E00E94F8000297D4F38FEC91E086
:1008A0000E94D6008F70D82E8FEC91E00E94D60067
:1008B00044E0880F991F4A95E1F7D82A000F111FCD
:1008C000F801EA5EFE4F0081118161E0802F0E94F5
:1008D0000502DD2009F446C0F801FF27E451FF4F6F
:1008E000E491E33011F148F4E130D1F0E230D1F598
:1008F00084B5806284BDD8BCE3C0E73019F1E8302C
:1009000049F1E43079F58091800080628093800025
:100910008D2DDD0C990B90938B0080938A00D0C0B5
:1009200084B5806884BDD7BCCBC0809180008068CE
:10093000809380008D2DDD0C990B9093890080931E
:100940008800BEC08091B00080688093B000D092D3
:10095000B300B6C08091B00080628093B000D092A6
:10096000B400AEC060E0802F0E94D501A9C00E94F3
:100970007601006400937C0080917A00806480930B
:100980007A0080917A0086FDFCCF009178008091FA
:10099000790010E0182BC8018F709927806D0E9494
:1009A0007B01C80124E0959587952A95E1F78F7022
:1009B0009927806D0E947B01812F992787FD9A9549
:1009C0008F709927806D0E947B017AC02038310595
:1009D000C9F48FEC91E00E94D6008F709927813086
:1009E000910541F08230910539F0892B09F068C0FA
:1009F00060E003C062E001C061E0812F8F700E945F
:100A000005025EC0203D310509F45AC0E091C901DC
:100A1000F091CA01E75BFE4F1082E12FEF710E2EBD
:100A2000000CFF0BEF31F10578F5EC5CFF4F0C94F7
:100A30009C052FB7F8946091450170914601809113
:100A40004701909148012FBF2AE0A7010E94AE07FD
:100A5000F70101900020E9F7BF016E197F0980E0DE
:100A600090E00E94CF068C01009729F0FC011082D3
:100A7000B7010E94A707C8010E943706C80102C03B
:100A800089E491E00E949D028091CD019091CE0178
:100A90000E9476018FEC91E00E9480011092CA01C1
:100AA0001092C9010DC08091C9019091CA01FC0149
:100AB000E75BFE4F108301969093CA018093C901B2
:100AC0000E94A20189CE812F110F990B806A04C068
:100AD000812F110F990B806B0E947601F1CFEFEC03
:100AE000F1E01382128288EE93E0A0E0B0E084830C
:100AF0009583A683B7838AE091E09183808385EC18
:100B000090E09587848784EC90E09787868780ECD7
:100B100090E0918B808B81EC90E0938B828B82ECC8
:100B200090E0958B848B86EC90E0978B868B118E72
:100B3000128E138E148E0895EE0FFF1F0590F49100
:100B4000E02D0994CF93DF938230910510F482E079
:100B500090E0E0916E02F0916F0220E030E0C0E0A2
:100B6000D0E0309711F14081518148175907C0F00A
:100B70004817590761F482819381209719F09B836C
:100B80008A832BC090936F0280936E0226C021153A
:100B9000310519F04217530718F49A01BE01DF011D
:100BA000EF010280F381E02DDCCF2115310509F141
:100BB000281B390B2430310590F412968D919C91AD
:100BC00013976115710521F0FB019383828304C0A3
:100BD00090936F0280936E02FD01329644C0FD0136
:100BE000E20FF31F81939193225031092D933C938F
:100BF0003AC020916C0230916D02232B41F4209178
:100C000002013091030130936D0220936C02209118
:100C10000001309101012115310541F42DB73EB796
:100C20004091040150910501241B350BE0916C02A9
:100C3000F0916D02E217F307A0F42E1B3F0B28176B
:100C4000390778F0AC014E5F5F4F2417350748F045
:100C50004E0F5F1F50936D0240936C0281939193EE
:100C600002C0E0E0F0E0CF01DF91CF9108950F9353
:100C70001F93CF93DF93009709F48CC0FC01329748
:100C80001382128200916E0210916F0201151105FC
:100C900081F420813181820F931F20916C02309169
:100CA0006D022817390779F5F0936D02E0936C0215
:100CB00071C0D80140E050E0AE17BF0750F4129663
:100CC0002D913C911397AD012115310509F1D90101
:100CD000F3CF9D01DA013383228360817181860F16
:100CE000971F8217930769F4EC0128813981260F39
:100CF000371F2E5F3F4F318320838A819B819383EF
:100D00008283452B29F4F0936F02E0936E0242C078
:100D10001396FC93EE931297ED01499159919E0120
:100D2000240F351FE217F30771F480819181840F3E
:100D3000951F029611969C938E93828193811396B0
:100D40009C938E931297E0E0F0E0D80112968D917B
:100D50009C911397009719F0F8018C01F6CF8D91B3
:100D60009C9198012E5F3F4F820F931F20916C0240
:100D700030916D022817390769F4309729F41092E1
:100D80006F0210926E0202C01382128210936D02E3
:100D900000936C02DF91CF911F910F910895A0E015
:100DA000B0E0E5EDF6E00C94E407EC01009721F4E7
:100DB000CB010E94A205B8C0FC01E60FF71F9C0101
:100DC00022503109E217F30708F4ACC0D9010D91A4
:100DD0001C91119706171707B0F00530110508F49C
:100DE0009FC0C80104978617970708F499C002505E
:100DF0001109061B170B019311936D937C93CF017F
:100E00000E9437068DC05B01A01AB10A4C01800E0A
:100E1000911EA0916E02B0916F0240E050E0E12C73
:100E2000F12C109709F44AC0A815B905D1F56D90B9
:100E30007C901197630182E0C80ED11CCA14DB04B8
:100E400080F1A3014A195B096A0182E0C80ED11C36
:100E50001296BC9012971396AC91B5E0CB16D104C4
:100E600040F0B282A38351834083D9016D937C9378
:100E70000AC00E5F1F4FC301800F911FF9019183BC
:100E80008083EB2DFA2FE114F10431F0D701139692
:100E9000FC93EE93129744C0F0936F02E0936E02BE
:100EA0003FC08D919C9111974817590708F4AC01E8
:100EB0007D0112960D90BC91A02DB3CF80916C0254
:100EC00090916D0288159905E1F446175707C8F40B
:100ED0008091000190910101009741F48DB79EB778
:100EE0004091040150910501841B950BE817F90707
:100EF000C8F4F0936D02E0936C02F9017183608392
:100F00000FC0CB010E94A2057C01009759F0A801F7
:100F1000BE010E949E07CE010E943706C70104C091
:100F2000CE0102C080E090E0CDB7DEB7EEE00C94D9
:100F3000000881E090E0F8940C941708FB01DC01B4
:100F400002C001900D9241505040D8F70895FB0126
:100F5000DC0101900D920020E1F70895BB27FA0112
:100F6000A62F6217710581059105330B30FB66F0E2
:100F7000AA27660F771F881F991FAA1FA21710F0B4
:100F8000A21B63953850A9F7A05DAA3308F0A95DAC
:100F9000A19336F7B111B1931082CA010C94D00716
:100FA000DC01FC01672F71917723E1F7329704C0D0
:100FB0007C916D9370836291AE17BF07C8F308955B
:100FC0002F923F924F925F926F927F928F929F9259
:100FD000AF92BF92CF92DF92EF92FF920F931F9347
:100FE000CF93DF93CDB7DEB7CA1BDB0B0FB6F894F8
:100FF000DEBF0FBECDBF09942A88398848885F8438
:101000006E847D848C849B84AA84B984C884DF80A8
:10101000EE80FD800C811B81AA81B981CE0FD11D8C
:101020000FB6F894DEBF0FBECDBFED010895F89462
:02103000FFCFF0
:10103200000070028000000000002F01AB00F800E9
:10104200D600EA00800103000500060009000A003C
:101052000B00496D7065656475696E6F2056657227
:1010620073696F6E3A2000302E302E33000D0A0065
:00000001FF
