:100000000C9481000C94A9000C94A9000C94A900F4
:100010000C94A9000C94A9000C94A9000C94A900BC
:100020000C94A9000C94A9000C94A9000C94A900AC
:100030000C94A9000C94A9000C94A9000C94A9009C
:100040000C94FF020C94A9000C94CD020C94A7020E
:100050000C94A9000C94A9000C94A9000C94A9007C
:100060000C94A9000C94A900CD04CD04CD04CD04BA
:10007000CD04CD04CD04CD04CD04CD04CD04CD04F8
:10008000CD04CD04CD04CD04CD04CD04CD04CD04E8
:10009000CD04CD04CD04CD04CD04CD04CD04CD04D8
:1000A000CD04CD04CD0400000000240027002A0068
:1000B00000000000250028002B00000000002300A5
:1000C00026002900040404040404040402020202B9
:1000D000020203030303030301020408102040800B
:1000E000010204081020010204081020000000088A
:1000F00000020100000304070000000000000000EF
:10010000FC0411241FBECFEFD8E0DEBFCDBF11E04D
:10011000A0E0B1E0ECE6FAE002C005900D92AE324C
:10012000B107D9F722E0AEE2B1E001C01D92AA35D5
:10013000B207E1F710E0C1E8D0E004C02197FE016A
:100140000E942905C038D107C9F70E9449030C94C1
:1001500034050C940000CF92DF92EF92FF920F9340
:100160001F93CF93DF936C017A018B01C0E0D0E045
:10017000CE15DF0589F0D8016D918D01D601ED9185
:10018000FC910190F081E02DC6010995892B11F4B5
:100190007E0102C02196ECCFC701DF91CF911F9164
:1001A0000F91FF90EF90DF90CF900895FC01918D1B
:1001B000828D981761F0828DDF01A80FB11D5D96C9
:1001C0008C91928D9F5F9F73928F90E008958FEF37
:1001D0009FEF0895FC01918D828D981731F0828DEB
:1001E000E80FF11D858D90E008958FEF9FEF089542
:1001F000FC01918D228D892F90E0805C9F4F821BA6
:1002000091098F73992708958DEB91E00E94F80072
:1002100021E0892B09F420E0822F0895FC01848DD0
:10022000DF01A80FB11DA35ABF4F2C91848D90E020
:1002300001968F739927848FA689B7892C93A089FB
:10024000B1898C9180648C93938D848D981306C0B2
:100250000288F389E02D80818F7D80830895EF925D
:10026000FF920F931F93CF93DF93EC0181E0888F70
:100270009B8D8C8D981305C0E889F989808185FD57
:1002800024C0F62E0B8D10E00F5F1F4F0F73112748
:10029000E02E8C8DE8120CC00FB607FCFACFE8896F
:1002A000F989808185FFF5CFCE010E940E01F1CF43
:1002B0008B8DFE01E80FF11DE35AFF4FF0820B8F8B
:1002C000EA89FB898081806207C0EE89FF896083AB
:1002D000E889F98980818064808381E090E0DF9102
:1002E000CF911F910F91FF90EF900895CF93DF93DF
:1002F000EC01888D8823C9F0EA89FB89808185FD1E
:1003000005C0A889B9898C9186FD0FC00FB607FC7E
:10031000F5CF808185FFF2CFA889B9898C9185FFBF
:10032000EDCFCE010E940E01E7CFDF91CF9108956E
:1003300080E090E0892B29F00E94040181110C9447
:1003400000000895833081F028F4813099F08230E4
:10035000A1F008958730A9F08830B9F08430D1F445
:10036000809180008F7D03C0809180008F77809383
:100370008000089584B58F7702C084B58F7D84BDD9
:1003800008958091B0008F7703C08091B0008F7D79
:100390008093B00008951F93CF93DF93282F30E010
:1003A000F901E451FF4F8491F901E852FF4FD491D4
:1003B000F901EC53FF4FC491CC23C9F0162F8111E2
:1003C0000E94A201EC2FF0E0EE0FFF1FE055FF4F5F
:1003D000A591B4918FB7F894111105C09C91ED2FA0
:1003E000E095E92302C0EC91ED2BEC938FBFDF91F8
:1003F000CF911F910895CF93DF9390E0FC01E852D5
:10040000FF4F2491FC01EC53FF4F8491882361F14D
:1004100090E0880F991FFC01EA55FF4FC591D491D8
:10042000FC01E055FF4FA591B491611109C09FB740
:10043000F8948881209582238883EC912E230BC029
:10044000623061F49FB7F8943881822F80958323BE
:100450008883EC912E2B2C939FBF06C08FB7F89406
:10046000E8812E2B28838FBFDF91CF9108953FB76E
:10047000F8948091330190913401A0913501B091AD
:10048000360126B5A89B05C02F3F19F00196A11D86
:10049000B11D3FBFBA2FA92F982F8827820F911D1A
:1004A000A11DB11DBC01CD0142E0660F771F881F61
:1004B000991F4A95D1F708958F929F92AF92BF925C
:1004C000CF92DF92EF92FF920E9437024B015C01C4
:1004D00082E3C82ED12CE12CF12C0E943702DC01E2
:1004E000CB0188199909AA09BB09883E9340A10547
:1004F000B10558F021E0C21AD108E108F10888EEF0
:10050000880E83E0981EA11CB11CC114D104E10423
:10051000F10419F7FF90EF90DF90CF90BF90AF906C
:100520009F908F900895009769F0FC010190002042
:10053000E9F73197AF01481B590BBC018DEB91E0F6
:100540000C94AB0080E090E008950E942F051F926C
:100550000F920FB60F9211242F933F934F935F93F7
:100560006F937F938F939F93AF93BF93EF93FF937B
:100570008DEB91E00E940E01FF91EF91BF91AF9141
:100580009F918F917F916F915F914F913F912F91AB
:100590000F900FBE0F901F9018951F920F920FB6DD
:1005A0000F9211242F938F939F93EF93FF93E091DA
:1005B000CD01F091CE018081E091D301F091D40181
:1005C00082FD12C090818091D6018F5F8F73209140
:1005D000D701821751F0E091D601F0E0E354FE4FCD
:1005E000958F8093D60101C08081FF91EF919F91FB
:1005F0008F912F910F900FBE0F901F9018951F9203
:100600000F920FB60F9211242F933F938F939F93C6
:10061000AF93BF9380912F0190913001A091310150
:10062000B091320130912E0123E0230F2D3720F4B9
:100630000196A11DB11D05C026E8230F0296A11D3C
:10064000B11D20932E0180932F0190933001A09330
:100650003101B09332018091330190913401A09126
:100660003501B09136010196A11DB11D8093330172
:1006700090933401A0933501B0933601BF91AF91AF
:100680009F918F913F912F910F900FBE0F901F90D0
:100690001895789484B5826084BD84B5816084BDEA
:1006A00085B5826085BD85B5816085BD80916E0010
:1006B000816080936E001092810080918100826041
:1006C000809381008091810081608093810080917E
:1006D00080008160809380008091B100846080936D
:1006E000B1008091B00081608093B00080917A0069
:1006F000846080937A0080917A00826080937A008F
:1007000080917A00816080937A0080917A0080687D
:1007100080937A001092C100E091CD01F091CE015A
:1007200082E08083E091C901F091CA011082E091DA
:10073000CB01F091CC0180E180831092D501E09152
:10074000D101F091D20186E08083E091CF01F09158
:10075000D001808180618083E091CF01F091D00150
:10076000808188608083E091CF01F091D001808109
:1007700080688083E091CF01F091D00180818F7DEE
:10078000808380E191E00E94930285E291E00E94E3
:1007900093028BE291E00E9493028DEB91E00E9424
:1007A00076018DEB91E00E94F800892B09F413C1CA
:1007B0008DEB91E00E94D600C82F082E000C990BFB
:1007C0009093BC018093BB0187FFF8C0807F99277D
:1007D0009093BA018093B9018039910519F51C2FC6
:1007E0001F70212F30E0F901E451FF4F8491F9018E
:1007F000E852FF4FD491F901EC53FF4FC491CC2341
:1008000009F4ECC081110E94A201EC2FF0E0EE0F80
:10081000FF1FE654FF4FA591B491EC91ED2309F42D
:10082000DDC0E1C0803A910511F460E004C0803B76
:10083000910541F461E08C2F8F700E94CB010E94E2
:100840005C02C9C0803E910509F070C0DC2FD770F2
:10085000C3FF5BC08DEB91E00E94D6008C0161E08C
:100860008D2F0E94FB010115110509F44CC00F3FAB
:10087000110529F461E08D2F0E94CB01ACC0ED2F52
:10088000F0E0E451FF4FE491E330F9F048F4E13057
:10089000B9F0E230A1F584B5806284BD08BD9BC08B
:1008A000E730E9F0E83019F1E43049F58091800053
:1008B00080628093800010938B0000938A008BC02D
:1008C00084B5806884BD07BD86C080918000806843
:1008D0008093800010938900009388007CC08091F1
:1008E000B00080688093B0000093B30074C0809122
:1008F000B00080628093B0000093B4006CC00038F8
:1009000011050CF0B7CF60E0B6CFD064D0937C0077
:1009100080917A00806480937A0080917A0086FDCD
:10092000FCCF809178008091790055C08038910586
:10093000C9F48DEB91E00E94D6008F709927813029
:10094000910541F08230910539F0892B09F043C0BF
:1009500060E003C062E001C061E08C2F8F700E94F4
:10096000FB0139C0803F9105B1F1E091B701F091F1
:10097000B801E95CFE4F1082EC2FEF710E2E000CD7
:10098000FF0B3197EF31F10530F4EC5CFF4F87E35B
:1009900091E00C94290587E391E00E949302609115
:1009A000BB018DEB91E00E942F018DEB91E00E9445
:1009B00076011092B8011092B7010DC08091B70175
:1009C0009091B801FC01E95CFE4FC08301969093C1
:1009D000B8018093B7010E949801E3CE612F110FF7
:1009E000770B606A04C0612F110F770B606B8DEB82
:1009F00091E00E942F01EFCFEDEBF1E01382128224
:100A000088EE93E0A0E0B0E084839583A683B7836B
:100A100084E091E09183808385EC90E095878487E2
:100A200084EC90E09787868780EC90E0918B808BB8
:100A300081EC90E0938B828B82EC90E0958B848BA1
:100A400086EC90E0978B868B118E128E138E148E0F
:100A50000895EE0FFF1F0590F491E02D099481E0B9
:0C0A600090E0F8940C943405F894FFCF5B
:100A6C00000000002F01AB00F800D600EA00760170
:100A7C00496D7065656475696E6F20566572736932
:0E0A8C006F6E3A2000302E302E30000D0A0022
:107E0000112484B714BE81FFF0D085E080938100F7
:107E100082E08093C00088E18093C10086E0809377
:107E2000C20080E18093C4008EE0C9D0259A86E02C
:107E300020E33CEF91E0309385002093840096BBD3
:107E4000B09BFECF1D9AA8958150A9F7CC24DD24C4
:107E500088248394B5E0AB2EA1E19A2EF3E0BF2EE7
:107E6000A2D0813461F49FD0082FAFD0023811F036
:107E7000013811F484E001C083E08DD089C08234E0
:107E800011F484E103C0853419F485E0A6D080C0E4
:107E9000853579F488D0E82EFF2485D0082F10E0AE
:107EA000102F00270E291F29000F111F8ED06801E7
:107EB0006FC0863521F484E090D080E0DECF843638
:107EC00009F040C070D06FD0082F6DD080E0C81688
:107ED00080E7D80618F4F601B7BEE895C0E0D1E017
:107EE00062D089930C17E1F7F0E0CF16F0E7DF06D8
:107EF00018F0F601B7BEE89568D007B600FCFDCFD4
:107F0000A601A0E0B1E02C9130E011968C91119780
:107F100090E0982F8827822B932B1296FA010C0160
:107F200087BEE89511244E5F5F4FF1E0A038BF0790
:107F300051F7F601A7BEE89507B600FCFDCF97BE46
:107F4000E89526C08437B1F42ED02DD0F82E2BD052
:107F50003CD0F601EF2C8F010F5F1F4F84911BD097
:107F6000EA94F801C1F70894C11CD11CFA94CF0C13
:107F7000D11C0EC0853739F428D08EE10CD085E9AC
:107F80000AD08FE07ACF813511F488E018D01DD067
:107F900080E101D065CF982F8091C00085FFFCCF94
:107FA0009093C60008958091C00087FFFCCF809118
:107FB000C00084FD01C0A8958091C6000895E0E648
:107FC000F0E098E1908380830895EDDF803219F02E
:107FD00088E0F5DFFFCF84E1DECF1F93182FE3DFCA
:107FE0001150E9F7F2DF1F91089580E0E8DFEE27F6
:047FF000FF270994CA
:027FFE00040479
:0400000300007E007B
:00000001FF
