:100000000C9481000C94A9000C94A9000C94A900F4
:100010000C94A9000C94A9000C94A9000C94A900BC
:100020000C94A9000C94A9000C94A9000C94A900AC
:100030000C94A9000C94A9000C94A9000C94A9009C
:100040000C944B020C94A9000C94BB020C949502E6
:100050000C94A9000C94A9000C94A9000C94A9007C
:100060000C94A9000C94A9006D046D046D046D043A
:100070006D046D046D046D046D046D046D046D04F8
:100080006D046D046D046D046D046D046D046D04E8
:100090006D046D046D046D046D046D046D046D04D8
:1000A0006D046D046D0400000000240027002A0088
:1000B00000000000250028002B00000000002300A5
:1000C00026002900040404040404040402020202B9
:1000D000020203030303030301020408102040800B
:1000E000010204081020010204081020000000088A
:1000F00000020100000304070000000000000000EF
:100100009C0411241FBECFEFD8E0DEBFCDBF11E0AD
:10011000A0E0B1E0ECEAF9E002C005900D92AE3249
:10012000B107D9F722E0AEE2B1E001C01D92AA35D5
:10013000B207E1F710E0C1E8D0E004C02197FE016A
:100140000E94C904C038D107C9F70E94ED020C947F
:10015000D4040C940000CF92DF92EF92FF920F93A1
:100160001F93CF93DF936C017A018B01C0E0D0E045
:10017000CE15DF0589F0D8016D918D01D601ED9185
:10018000FC910190F081E02DC6010995892B11F4B5
:100190007E0102C02196ECCFC701DF91CF911F9164
:1001A0000F91FF90EF90DF90CF900895FC01918D1B
:1001B000828D981761F0828DDF01A80FB11D5D96C9
:1001C0008C91928D9F5F9F73928F90E008958FEF37
:1001D0009FEF0895FC01918D828D981731F0828DEB
:1001E000E80FF11D858D90E008958FEF9FEF089542
:1001F000FC01918D228D892F90E0805C9F4F821BA6
:1002000091098F73992708958DEB91E00E94F80072
:1002100021E0892B09F420E0822F0895FC01848DD0
:10022000DF01A80FB11DA35ABF4F2C91848D90E020
:1002300001968F739927848FA689B7892C93A089FB
:10024000B1898C9180648C93938D848D981306C0B2
:100250000288F389E02D80818F7D80830895EF925D
:10026000FF920F931F93CF93DF93EC0181E0888F70
:100270009B8D8C8D981305C0E889F989808185FD57
:1002800024C0F62E0B8D10E00F5F1F4F0F73112748
:10029000E02E8C8DE8120CC00FB607FCFACFE8896F
:1002A000F989808185FFF5CFCE010E940E01F1CF43
:1002B0008B8DFE01E80FF11DE35AFF4FF0820B8F8B
:1002C000EA89FB898081806207C0EE89FF896083AB
:1002D000E889F98980818064808381E090E0DF9102
:1002E000CF911F910F91FF90EF900895CF93DF93DF
:1002F000EC01888D8823C9F0EA89FB89808185FD1E
:1003000005C0A889B9898C9186FD0FC00FB607FC7E
:10031000F5CF808185FFF2CFA889B9898C9185FFBF
:10032000EDCFCE010E940E01E7CFDF91CF9108956E
:1003300080E090E0892B29F00E94040181110C9447
:1003400000000895833081F028F4813099F08230E4
:10035000A1F008958730A9F08830B9F08430D1F445
:10036000809180008F7D03C0809180008F77809383
:100370008000089584B58F7702C084B58F7D84BDD9
:1003800008958091B0008F7703C08091B0008F7D79
:100390008093B00008951F93CF93DF93282F30E010
:1003A000F901E451FF4F8491F901E852FF4FD491D4
:1003B000F901EC53FF4FC491CC23C9F0162F8111E2
:1003C0000E94A201EC2FF0E0EE0FFF1FE055FF4F5F
:1003D000A591B4918FB7F894111105C09C91ED2FA0
:1003E000E095E92302C0EC91ED2BEC938FBFDF91F8
:1003F000CF911F910895CF93DF9390E0FC01E852D5
:10040000FF4F2491FC01EC53FF4F8491882361F14D
:1004100090E0880F991FFC01EA55FF4FC591D491D8
:10042000FC01E055FF4FA591B491611109C09FB740
:10043000F8948881209582238883EC912E230BC029
:10044000623061F49FB7F8943881822F80958323BE
:100450008883EC912E2B2C939FBF06C08FB7F89406
:10046000E8812E2B28838FBFDF91CF9108950097CD
:1004700069F0FC0101900020E9F73197AF01481BBA
:10048000590BBC018DEB91E00C94AB0080E090E047
:1004900008950E94CF041F920F920FB60F9211245D
:1004A0002F933F938F939F93AF93BF938091B90105
:1004B0009091BA01A091BB01B091BC013091B801FB
:1004C00023E0230F2D3720F40196A11DB11D05C097
:1004D00026E8230F0296A11DB11D2093B801809339
:1004E000B9019093BA01A093BB01B093BC01809174
:1004F000B4019091B501A091B601B091B7010196F8
:10050000A11DB11D8093B4019093B501A093B601D4
:10051000B093B701BF91AF919F918F913F912F9170
:100520000F900FBE0F901F9018951F920F920FB64D
:100530000F9211242F933F934F935F936F937F9369
:100540008F939F93AF93BF93EF93FF938DEB91E0C6
:100550000E940E01FF91EF91BF91AF919F918F91FA
:100560007F916F915F914F913F912F910F900FBEAF
:100570000F901F9018951F920F920FB60F92112493
:100580002F938F939F93EF93FF93E091CD01F09181
:10059000CE018081E091D301F091D40182FD12C09F
:1005A00090818091D6018F5F8F732091D701821740
:1005B00051F0E091D601F0E0E354FE4F958F809327
:1005C000D60101C08081FF91EF919F918F912F9172
:1005D0000F900FBE0F901F901895789484B582608D
:1005E00084BD84B5816084BD85B5826085BD85B5D7
:1005F000816085BD80916E00816080936E00109255
:1006000081008091810082608093810080918100CF
:100610008160809381008091800081608093800060
:100620008091B10084608093B1008091B0008160BE
:100630008093B00080917A00846080937A008091EA
:100640007A00826080937A0080917A008160809342
:100650007A0080917A00806880937A001092C100BD
:10066000E091CD01F091CE0182E08083E091C9015B
:10067000F091CA011082E091CB01F091CC0180E1B0
:1006800080831092D501E091D101F091D20186E0F2
:100690008083E091CF01F091D001808180618083DF
:1006A000E091CF01F091D001808188608083E0915A
:1006B000CF01F091D001808180688083E091CF01EB
:1006C000F091D00180818F7D808380E191E00E9454
:1006D000370285E291E00E9437028BE291E00E94AE
:1006E00037028DEB91E00E9476018DEB91E00E9444
:1006F000F800892B09F40FC18DEB91E00E94D60020
:10070000C82F082E000C990B9093B3018093B2016F
:1007100087FFF4C0807F99279093B1018093B00147
:100720008039910519F51C2F1F70212F30E0F90138
:10073000E451FF4F8491F901E852FF4FD491F90140
:10074000EC53FF4FC491CC2309F4E8C081110E94FF
:10075000A201EC2FF0E0EE0FFF1FE654FF4FA59132
:10076000B491EC91ED2309F4D9C0DDC0803A910534
:1007700011F460E004C0803B910531F461E08C2FFE
:100780008F700E94CB01C7C0803E910509F06EC0FA
:10079000DC2FD770C3FF59C08DEB91E00E94D600CB
:1007A0008C0161E08D2F0E94FB010115110509F4F8
:1007B0004AC00F3F110519F461E08D2FE2CFED2FF4
:1007C000F0E0E451FF4FE491E330F9F048F4E13018
:1007D000B9F0E230A1F584B5806284BD08BD9BC04C
:1007E000E730E9F0E83019F1E43049F58091800014
:1007F00080628093800010938B0000938A008BC0EE
:1008000084B5806884BD07BD86C080918000806803
:100810008093800010938900009388007CC08091B1
:10082000B00080688093B0000093B30074C08091E2
:10083000B00080628093B0000093B4006CC00038B8
:1008400011050CF0B9CF60E0B8CFD064D0937C0034
:1008500080917A00806480937A0080917A0086FD8E
:10086000FCCF809178008091790055C08038910547
:10087000C9F48DEB91E00E94D6008F7099278130EA
:10088000910541F08230910539F0892B09F043C080
:1008900060E003C062E001C061E08C2F8F700E94B5
:1008A000FB0139C0803F9105B1F1E091AE01F091BB
:1008B000AF01E25DFE4F1082EC2FEF710E2E000CA7
:1008C000FF0B3197EF31F10530F4EC5CFF4F8EE216
:1008D00091E00C94C9048EE291E00E94370260918D
:1008E000B2018DEB91E00E942F018DEB91E00E940F
:1008F00076011092AF011092AE010DC08091AE0151
:100900009091AF01FC01E25DFE4FC0830196909390
:10091000AF018093AE010E949801E7CE612F110FC5
:10092000770B606A04C0612F110F770B606B8DEB42
:1009300091E00E942F01EFCFEDEBF1E013821282E4
:1009400088EE93E0A0E0B0E084839583A683B7832C
:1009500084E091E09183808385EC90E095878487A3
:1009600084EC90E09787868780EC90E0918B808B79
:1009700081EC90E0938B828B82EC90E0958B848B62
:1009800086EC90E0978B868B118E128E138E148ED0
:100990000895EE0FFF1F0590F491E02D099481E07A
:0C09A00090E0F8940C94D404F894FFCF7D
:1009AC00000000002F01AB00F800D600EA00760131
:1009BC00496D7065656475696E6F205665727369F3
:0E09CC006F6E3A2000302E302E30000D0A00E3
:00000001FF
