:100000000C9481000C94A9000C94A9000C94A900F4
:100010000C94A9000C94A9000C94A9000C94A900BC
:100020000C94A9000C94A9000C94A9000C94A900AC
:100030000C94A9000C94A9000C94A9000C94A9009C
:100040000C9459020C94A9000C94C9020C94A302BC
:100050000C94A9000C94A9000C94A9000C94A9007C
:100060000C94A9000C94A9008104810481048104EA
:100070008104810481048104810481048104810458
:100080008104810481048104810481048104810448
:100090008104810481048104810481048104810438
:1000A00081048104810400000000240027002A004C
:1000B00000000000250028002B00000000002300A5
:1000C00026002900040404040404040402020202B9
:1000D000020203030303030301020408102040800B
:1000E000010204081020010204081020000000088A
:1000F00000020100000304070000000000000000EF
:10010000BE0411241FBECFEFD8E0DEBFCDBF11E08B
:10011000A0E0B1E0E0EFF9E002C005900D92A0365A
:10012000B107D9F722E0A0E6B1E001C01D92AC38DA
:10013000B207E1F710E0C1E8D0E004C02197FE016A
:100140000E94EB04C038D107C9F70E94FB020C944F
:10015000F6040C940000CF92DF92EF92FF920F937F
:100160001F93CF93DF936C017A018B01C0E0D0E045
:10017000CE15DF0589F0D8016D918D01D601ED9185
:10018000FC910190F081E02DC6010995892B11F4B5
:100190007E0102C02196ECCFC701DF91CF911F9164
:1001A0000F91FF90EF90DF90CF900895FC01918D1B
:1001B000828D981761F0828DDF01A80FB11D5D96C9
:1001C0008C91928D9F5F9F73928F90E008958FEF37
:1001D0009FEF0895FC01918D828D981731F0828DEB
:1001E000E80FF11D858D90E008958FEF9FEF089542
:1001F000FC01918D228D892F90E0805C9F4F821BA6
:1002000091098F73992708958FEE91E00E94F8006D
:1002100021E0892B09F420E0822F0895FC01848DD0
:10022000DF01A80FB11DA35ABF4F2C91848D90E020
:1002300001968F739927848FA689B7892C93A089FB
:10024000B1898C9180648C93938D848D981306C0B2
:100250000288F389E02D80818F7D80830895EF925D
:10026000FF920F931F93CF93DF93EC0181E0888F70
:100270009B8D8C8D981305C0E889F989808185FD57
:1002800024C0F62E0B8D10E00F5F1F4F0F73112748
:10029000E02E8C8DE8120CC00FB607FCFACFE8896F
:1002A000F989808185FFF5CFCE010E940E01F1CF43
:1002B0008B8DFE01E80FF11DE35AFF4FF0820B8F8B
:1002C000EA89FB898081806207C0EE89FF896083AB
:1002D000E889F98980818064808381E090E0DF9102
:1002E000CF911F910F91FF90EF900895CF93DF93DF
:1002F000EC01888D8823C9F0EA89FB89808185FD1E
:1003000005C0A889B9898C9186FD0FC00FB607FC7E
:10031000F5CF808185FFF2CFA889B9898C9185FFBF
:10032000EDCFCE010E940E01E7CFDF91CF9108956E
:1003300080E090E0892B29F00E94040181110C9447
:1003400000000895833081F028F4813099F08230E4
:10035000A1F008958730A9F08830B9F08430D1F445
:10036000809180008F7D03C0809180008F77809383
:100370008000089584B58F7702C084B58F7D84BDD9
:1003800008958091B0008F7703C08091B0008F7D79
:100390008093B00008951F93CF93DF93282F30E010
:1003A000F901E451FF4F8491F901E852FF4FD491D4
:1003B000F901EC53FF4FC491CC23C9F0162F8111E2
:1003C0000E94A201EC2FF0E0EE0FFF1FE055FF4F5F
:1003D000A591B4918FB7F894111105C09C91ED2FA0
:1003E000E095E92302C0EC91ED2BEC938FBFDF91F8
:1003F000CF911F910895CF93DF9390E0FC01E852D5
:10040000FF4F2491FC01EC53FF4F8491882361F14D
:1004100090E0880F991FFC01EA55FF4FC591D491D8
:10042000FC01E055FF4FA591B491611109C09FB740
:10043000F8948881209582238883EC912E230BC029
:10044000623061F49FB7F8943881822F80958323BE
:100450008883EC912E2B2C939FBF06C08FB7F89406
:10046000E8812E2B28838FBFDF91CF9108950097CD
:1004700069F0FC0101900020E9F73197AF01481BBA
:10048000590BBC018FEE91E00C94AB0080E090E042
:100490000895CF93DF930E943702EC0180E191E051
:1004A0000E9437028C0F9D1FDF91CF9108950E940B
:1004B000F1041F920F920FB60F9211242F933F93C6
:1004C0008F939F93AF93BF938091EB019091EC0139
:1004D000A091ED01B091EE013091EA0123E0230FEC
:1004E0002D3720F40196A11DB11D05C026E8230F6C
:1004F0000296A11DB11D2093EA018093EB01909318
:10050000EC01A093ED01B093EE018091E601909192
:10051000E701A091E801B091E9010196A11DB11D8B
:100520008093E6019093E701A093E801B093E9017D
:10053000BF91AF919F918F913F912F910F900FBEDF
:100540000F901F9018951F920F920FB60F921124C3
:100550002F933F934F935F936F937F938F939F93CB
:10056000AF93BF93EF93FF938FEE91E00E940E0144
:10057000FF91EF91BF91AF919F918F917F916F917B
:100580005F914F913F912F910F900FBE0F901F9051
:1005900018951F920F920FB60F9211242F938F93DD
:1005A0009F93EF93FF93E091FF01F0910002808110
:1005B000E0910502F091060282FD12C090818091C7
:1005C00008028F5F8F7320910902821751F0E0912A
:1005D0000802F0E0E151FE4F958F8093080201C0C0
:1005E0008081FF91EF919F918F912F910F900FBE7E
:1005F0000F901F901895789484B5826084BD84B55F
:10060000816084BD85B5826085BD85B5816085BD0D
:1006100080916E00816080936E00109281008091C5
:10062000810082608093810080918100816080934D
:100630008100809180008160809380008091B10072
:1006400084608093B1008091B00081608093B0009D
:1006500080917A00846080937A0080917A00826031
:1006600080937A0080917A00816080937A008091F3
:100670007A00806880937A001092C100E091FF01B7
:10068000F091000282E08083E091FB01F091FC0197
:100690001082E091FD01F091FE0180E180831092D3
:1006A0000702E0910302F091040286E08083E0916A
:1006B0000102F0910202808180618083E091010259
:1006C000F0910202808188608083E0910102F091C4
:1006D0000202808180688083E0910102F091020231
:1006E00080818F7D808383E191E00E94370288E2E0
:1006F00091E00E9449028FEE91E00E9476018FEE18
:1007000091E00E94F800892B09F419C18FEE91E065
:100710000E94D600C82F082E000C990B9093E5017B
:100720008093E40187FFFEC0807F99279093E301C7
:100730008093E2018039910511F5CF702C2F30E0C4
:10074000F901E451FF4F8491F901E852FF4FD49130
:10075000F901EC53FF4FC491CC2309F4F3C081118C
:100760000E94A201EC2FF0E0EE0FFF1FE654FF4FB6
:10077000A591B491EC91ED2309F4E4C0EFC0803A67
:10078000910541F48EE291E00E9449028091E401DA
:1007900060E00AC0803B910559F48AE391E00E9431
:1007A00049028091E40161E08F700E94CB01C7C0D3
:1007B000803E910509F06EC0DC2FD770C3FF59C091
:1007C0008FEE91E00E94D6008C0161E08D2F0E9497
:1007D000FB010115110509F44AC00F3F110519F479
:1007E00061E08D2FE2CFED2FF0E0E451FF4FE49177
:1007F000E330F9F048F4E130B9F0E230A1F584B526
:10080000806284BD08BD9BC0E730E9F0E83019F193
:10081000E43049F5809180008062809380001093DD
:100820008B0000938A008BC084B5806884BD07BDAF
:1008300086C080918000806880938000109389003A
:10084000009388007CC08091B00080688093B000E5
:100850000093B30074C08091B00080628093B000B8
:100860000093B4006CC0003811050CF0B9CF60E003
:10087000B8CFD064D0937C0080917A00806480935C
:100880007A0080917A0086FDFCCF8091780080917B
:10089000790055C080389105C9F48FEE91E00E942F
:1008A000D6008F7099278130910541F082309105F3
:1008B00039F0892B09F043C060E003C062E001C059
:1008C00061E08C2F8F700E94FB0139C0803F910541
:1008D000B1F1E091E001F091E101E05AFE4F1082A8
:1008E000EC2FEF710E2E000CFF0B3197EF31F1055D
:1008F00030F4EC5CFF4F80E691E00C94EB0480E672
:1009000091E00E9437026091E4018FEE91E00E9435
:100910002F018FEE91E00E9476011092E10110927A
:10092000E0010DC08091E0019091E101FC01E05AED
:10093000FE4FC08301969093E1018093E0010E94F5
:100940009801DDCE87E491E00E9449026091E401C4
:100950007091E5016F707727606A0BC083E591E0C5
:100960000E9449026091E4017091E5016F70772760
:10097000606B8FEE91E00E942F01E1CFEFEEF1E08E
:100980001382128288EE93E0A0E0B0E08483958326
:10099000A683B78384E091E09183808385EC90E027
:1009A0009587848784EC90E09787868780EC90E039
:1009B000918B808B81EC90E0938B828B82EC90E02A
:1009C000958B848B86EC90E0978B868B118E128EA4
:1009D000138E148E0895EE0FFF1F0590F491E02DF5
:1009E000099481E090E0F8940C94F604F894FFCF19
:1009F000000000002F01AB00F800D600EA007601ED
:100A00000D0A00496D7065656475696E6F205665E5
:100A10007273696F6E3A2000302E302E300057729C
:100A20006974696E67204C4F570057726974696E1C
:100A3000672048494748004469676974616C204CE5
:100A40004F57004469676974616C20484947480002
:00000001FF
