:100000000C9481000C94A9000C94A9000C94A900F4
:100010000C94A9000C94A9000C94A9000C94A900BC
:100020000C94A9000C94A9000C94A9000C94A900AC
:100030000C94A9000C94A9000C94A9000C94A9009C
:100040000C940C030C94A9000C94DA020C94B402E6
:100050000C94A9000C94A9000C94A9000C94A9007C
:100060000C94A9000C94A9005405300554055405BE
:1000700054055405540554055405540554055405B8
:1000800054055405540554055405540554055405A8
:100090005405540554055405540554055405540598
:1000A00054055405540500000000240027002A00D0
:1000B00000000000250028002B00000000002300A5
:1000C00026002900040404040404040402020202B9
:1000D000020203030303030301020408102040800B
:1000E000010204081020010204081020000000088A
:1000F00000020100000304070000000000000000EF
:10010000830511241FBECFEFD8E0DEBFCDBF11E0C5
:10011000A0E0B1E0EEEBFBE002C005900D92AA3347
:10012000B107D9F725E0AAE3B1E001C01D92A63ED0
:10013000B207E1F710E0C1E8D0E004C02197FE016A
:100140000E94D205C038D107C9F70E9456030C940B
:10015000DD050C940000CF92DF92EF92FF920F9397
:100160001F93CF93DF936C017A018B01C0E0D0E045
:10017000CE15DF0589F0D8016D918D01D601ED9185
:10018000FC910190F081E02DC6010995892B11F4B5
:100190007E0102C02196ECCFC701DF91CF911F9164
:1001A0000F91FF90EF90DF90CF900895FC01918D1B
:1001B000828D981761F0828DDF01A80FB11D5D96C9
:1001C0008C91928D9F5F9F73928F90E008958FEF37
:1001D0009FEF0895FC01918D828D981731F0828DEB
:1001E000E80FF11D858D90E008958FEF9FEF089542
:1001F000FC01918D228D892F90E0805C9F4F821BA6
:1002000091098F739927089589E495E00E94F80079
:1002100021E0892B09F420E0822F0895FC01848DD0
:10022000DF01A80FB11DA35ABF4F2C91848D90E020
:1002300001968F739927848FA689B7892C93A089FB
:10024000B1898C9180648C93938D848D981306C0B2
:100250000288F389E02D80818F7D80830895EF925D
:10026000FF920F931F93CF93DF93EC0181E0888F70
:100270009B8D8C8D981305C0E889F989808185FD57
:1002800024C0F62E0B8D10E00F5F1F4F0F73112748
:10029000E02E8C8DE8120CC00FB607FCFACFE8896F
:1002A000F989808185FFF5CFCE010E940E01F1CF43
:1002B0008B8DFE01E80FF11DE35AFF4FF0820B8F8B
:1002C000EA89FB898081806207C0EE89FF896083AB
:1002D000E889F98980818064808381E090E0DF9102
:1002E000CF911F910F91FF90EF900895682F89E4AF
:1002F00095E00C942F01682F89E495E00C942F0170
:10030000CF93DF93EC01888D8823C9F0EA89FB89BC
:10031000808185FD05C0A889B9898C9186FD0FC0B3
:100320000FB607FCF5CF808185FFF2CFA889B98988
:100330008C9185FFEDCFCE010E940E01E7CFDF91BA
:10034000CF91089580E090E0892B29F00E9404016C
:1003500081110C9400000895833081F028F48130DD
:1003600099F08230A1F008958730A9F08830B9F073
:100370008430D1F4809180008F7D03C08091800013
:100380008F7780938000089584B58F7702C084B5FD
:100390008F7D84BD08958091B0008F7703C08091D8
:1003A000B0008F7D8093B00008951F93CF93DF93AB
:1003B000282F30E0F901E451FF4F8491F901E85210
:1003C000FF4FD491F901EC53FF4FC491CC23C9F0F6
:1003D000162F81110E94AC01EC2FF0E0EE0FFF1FF1
:1003E000E055FF4FA591B4918FB7F894111105C056
:1003F0009C91ED2FE095E92302C0EC91ED2BEC935D
:100400008FBFDF91CF911F910895CF93DF9390E03D
:10041000FC01E852FF4F2491FC01EC53FF4F849103
:10042000882361F190E0880F991FFC01EA55FF4F86
:10043000C591D491FC01E055FF4FA591B491611194
:1004400009C09FB7F8948881209582238883EC9116
:100450002E230BC0623061F49FB7F8943881822F4D
:10046000809583238883EC912E2B2C939FBF06C00D
:100470008FB7F894E8812E2B28838FBFDF91CF911F
:1004800008953FB7F89480913B0190913C01A09171
:100490003D01B0913E0126B5A89B05C02F3F19F044
:1004A0000196A11DB11D3FBFBA2FA92F982F8827F4
:1004B000820F911DA11DB11DBC01CD0142E0660F4F
:1004C000771F881F991F4A95D1F708958F929F92A1
:1004D000AF92BF92CF92DF92EF92FF926B017C01BD
:1004E0000E9441024B015C01C114D104E104F104FA
:1004F000F1F00E944102DC01CB0188199909AA0997
:10050000BB09883E9340A105B10570F321E0C21AF2
:10051000D108E108F10888EE880E83E0981EA11C3E
:10052000B11CC114D104E104F10419F7DDCFFF902F
:10053000EF90DF90CF90BF90AF909F908F900895F5
:10054000009769F0FC0101900020E9F73197AF01B5
:10055000481B590BBC0189E495E00C94AB0080E08A
:1005600090E008950E94D8051F920F920FB60F9247
:1005700011242F933F934F935F936F937F938F93A8
:100580009F93AF93BF93EF93FF9389E495E00E940D
:100590000E01FF91EF91BF91AF919F918F917F914C
:1005A0006F915F914F913F912F910F900FBE0F90E0
:1005B0001F9018951F920F920FB60F9211242F9330
:1005C0008F939F93EF93FF93E0915905F0915A0514
:1005D0008081E0915F05F091600582FD12C09081FD
:1005E000809162058F5F8F7320916305821751F0B0
:1005F000E0916205F0E0E75BFA4F958F809362052A
:1006000001C08081FF91EF919F918F912F910F9069
:100610000FBE0F901F9018951F920F920FB60F925A
:1006200011242F933F938F939F93AF93BF93809108
:100630003F0190914001A0914101B0914201309160
:100640003A0123E0230F2D3720F40196A11DB11D9F
:1006500005C026E8230F0296A11DB11D20933A0183
:1006600080933F0190934001A0934101B0934201D8
:1006700080913B0190913C01A0913D01B0913E01E0
:100680000196A11DB11D80933B0190933C01A09365
:100690003D01B0933E01BF91AF919F918F913F91EA
:1006A0002F910F900FBE0F901F901895CF93DF934F
:1006B000CDB7DEB7A1970FB6F894DEBF0FBECDBFA2
:1006C000789484B5826084BD84B5816084BD85B52D
:1006D000826085BD85B5816085BD80916E00816039
:1006E00080936E00109281008091810082608093DF
:1006F00081008091810081608093810080918000E1
:100700008160809380008091B10084608093B1000B
:100710008091B00081608093B00080917A00846005
:1007200080937A0080917A00826080937A00809131
:100730007A00816080937A0080917A00806880934B
:100740007A001092C100E0915905F0915A0582E0BB
:100750008083E0915505F09156051082E091570590
:10076000F091580580E1808310926105E0915D056C
:10077000F0915E0586E08083E0915B05F0915C0579
:10078000808180618083E0915B05F0915C058081D0
:1007900088608083E0915B05F0915C0580818068D2
:1007A0008083E0915B05F0915C0580818F7D808383
:1007B0008CE191E00E94A00281E391E00E94A002FE
:1007C00087E391E00E94A00280EE90E00E947B010E
:1007D00089E495E00E94800161E087E00E94D501F4
:1007E00064EF71E080E090E00E94660260E087E0E4
:1007F0000E94D5017AE0C72ED12CE12CF12C89E49E
:1008000095E00E94F800892B09F46EC189E495E017
:100810000E94D600182F082E000C990B90934805C3
:100820008093470587FF53C19C01207F3327309376
:100830004605209345052039310511F51F70412FDC
:1008400050E0FA01E451FF4F8491FA01E852FF4F62
:10085000B490FA01EC53FF4F0491002309F447C10F
:1008600081110E94AC01E02FF0E0EE0FFF1FE65473
:10087000FF4FA591B491EC91EB2109F438C13CC133
:10088000203A310511F460E004C0203B310561F4E9
:1008900061E0812F8F700E94D50162E370E080E0FB
:1008A00090E00E94660220C1203C310509F0A5C0FD
:1008B000012F077013FF72C0A02E000FBB0889E440
:1008C00095E00E94F8000297D4F389E495E00E9435
:1008D000D600182F1F7089E495E00E94D60044E0EE
:1008E000880F991F4A95E1F7182BF501EE0FFF1FAE
:1008F000E05FFE4FA080B18061E08A2D0E9405027A
:10090000112309F446C0F501FF27E451FF4FE4919C
:10091000E33011F148F4E130D1F0E230D1F584B5A3
:10092000806284BD18BDE0C0E73019F1E83049F1BC
:10093000E43079F580918000806280938000812F7F
:10094000110F990B90938B0080938A00CDC084B5D2
:10095000806884BD17BDC8C0809180008068809386
:100960008000812F110F990B90938900809388004C
:10097000BBC08091B00080688093B0001093B3003A
:10098000B3C08091B00080628093B0001093B40037
:10099000ABC060E08A2D0E94D501A6C00E947601FE
:1009A000006400937C0080917A00806480937A00D8
:1009B00080917A0086FDFCCF0091780080917900CB
:1009C00010E0182BC8018F709927806D0E947B0161
:1009D000C80124E0959587952A95E1F78F709927AE
:1009E000806D0E947B01812F992787FD9A958F70DA
:1009F0009927806D0E947B0177C020383105C9F4AA
:100A000089E495E00E94D6008F7099278130910586
:100A100041F08230910539F0892B09F065C060E022
:100A200003C062E001C061E0812F8F700E94050267
:100A30005BC0203D310509F457C0E0914305F091BA
:100A40004405ED5BFE4F1082E12FEF710E2E000C7E
:100A5000FF0BEF31F10560F5EC5CFF4F0C94D20514
:100A60008FB7F89420913F013091400140914101AE
:100A7000509142018FBF19A28E010F5D1F4FCA0115
:100A8000B901A70196010E94B005605DF80162936B
:100A90008F01211531054105510589F7CF010E94CC
:100AA000A00289E391E002C083E491E00E94A002E9
:100AB00080914705909148050E94760189E495E070
:100AC0000E94800110924405109243050DC0809150
:100AD000430590914405FC01ED5BFE4F10830196A8
:100AE00090934405809343050E94A20188CE812FF4
:100AF000110F990B806A04C0812F110F990B806B25
:100B00000E947601F1CFE9E4F5E01382128288EECB
:100B100093E0A0E0B0E084839583A683B78384E06C
:100B200091E09183808385EC90E09587848784ECC5
:100B300090E09787868780EC90E0918B808B81ECAA
:100B400090E0938B828B82EC90E0958B848B86EC8B
:100B500090E0978B868B118E128E138E148E0895D3
:100B6000A1E21A2EAA1BBB1BFD010DC0AA1FBB1FB1
:100B7000EE1FFF1FA217B307E407F50720F0A21B23
:100B8000B30BE40BF50B661F771F881F991F1A9490
:100B900069F760957095809590959B01AC01BD01BA
:100BA000CF010895EE0FFF1F0590F491E02D0994F9
:0E0BB00081E090E0F8940C94DD05F894FFCFFE
:100BBE00000000002F01AB00F800D600EA00800113
:100BCE0003000500060009000A000B00496D706560
:100BDE00656475696E6F2056657273696F6E3A2023
:0A0BEE0000312E302E30000D0A00F9
:107E0000112484B714BE81FFF0D085E080938100F7
:107E100082E08093C00088E18093C10086E0809377
:107E2000C20080E18093C4008EE0C9D0259A86E02C
:107E300020E33CEF91E0309385002093840096BBD3
:107E4000B09BFECF1D9AA8958150A9F7CC24DD24C4
:107E500088248394B5E0AB2EA1E19A2EF3E0BF2EE7
:107E6000A2D0813461F49FD0082FAFD0023811F036
:107E7000013811F484E001C083E08DD089C08234E0
:107E800011F484E103C0853419F485E0A6D080C0E4
:107E9000853579F488D0E82EFF2485D0082F10E0AE
:107EA000102F00270E291F29000F111F8ED06801E7
:107EB0006FC0863521F484E090D080E0DECF843638
:107EC00009F040C070D06FD0082F6DD080E0C81688
:107ED00080E7D80618F4F601B7BEE895C0E0D1E017
:107EE00062D089930C17E1F7F0E0CF16F0E7DF06D8
:107EF00018F0F601B7BEE89568D007B600FCFDCFD4
:107F0000A601A0E0B1E02C9130E011968C91119780
:107F100090E0982F8827822B932B1296FA010C0160
:107F200087BEE89511244E5F5F4FF1E0A038BF0790
:107F300051F7F601A7BEE89507B600FCFDCF97BE46
:107F4000E89526C08437B1F42ED02DD0F82E2BD052
:107F50003CD0F601EF2C8F010F5F1F4F84911BD097
:107F6000EA94F801C1F70894C11CD11CFA94CF0C13
:107F7000D11C0EC0853739F428D08EE10CD085E9AC
:107F80000AD08FE07ACF813511F488E018D01DD067
:107F900080E101D065CF982F8091C00085FFFCCF94
:107FA0009093C60008958091C00087FFFCCF809118
:107FB000C00084FD01C0A8958091C6000895E0E648
:107FC000F0E098E1908380830895EDDF803219F02E
:107FD00088E0F5DFFFCF84E1DECF1F93182FE3DFCA
:107FE0001150E9F7F2DF1F91089580E0E8DFEE27F6
:047FF000FF270994CA
:027FFE00040479
:0400000300007E007B
:00000001FF
